:020000040800F2
:10000000008001205D2C0208B12C0208B12C0208EE
:10001000B12C0208B12C0208B12C0208000000002B
:10002000000000000000000000000000B12C0208E9
:10003000B12C0208000000006D3C0008B12C020841
:10004000114A0008B12C0208B12C0208B12C020898
:10005000B12C0208B12C0208B12C0208B12C020804
:10006000B12C0208B12C0208B12C0208B12C0208F4
:10007000B12C0208B12C0208B12C0208B12C0208E4
:10008000B12C0208B12C0208B12C0208B12C0208D4
:10009000B12C0208B12C0208B12C0208B12C0208C4
:1000A000B12C0208B12C0208B12C0208B12C0208B4
:1000B000B12C0208B12C0208B12C0208B12C0208A4
:1000C000B12C0208B12C0208B12C0208B12C020894
:1000D000B12C0208B12C0208B12C0208B12C020884
:1000E000B12C0208B12C0208B12C0208B12C020874
:1000F000B12C0208E9380008B12C0208B12C020822
:10010000B12C0208B12C0208B12C0208B12C020853
:10011000B12C0208B12C02080D3400081D3C000867
:10012000B12C0208B12C0208B12C0208B12C020833
:10013000B12C0208B12C0208B12C0208B12C020823
:10014000B12C0208B12C0208B12C0208B12C020813
:10015000B12C0208B12C0208B12C0208B12C020803
:10016000B12C0208B12C0208B12C0208B12C0208F3
:10017000B12C0208B12C0208B12C020800000000CA
:10018000B12C0208B12C020810B5054C237833B904
:10019000044B13B10448AFF300800123237010BD5A
:1001A0009002002000000000AC7B030808B5064B5D
:1001B0001BB106480649AFF300800648036813B137
:1001C000054B03B1984708BD00000000AC7B030855
:1001D000940200208C0200200000000070B52DED7C
:1001E000028B824884B001F0BFF800217F4801F003
:1001F000F9F87F4801F0B8F800217D4801F0F2F8E5
:10020000A82023F063FD044601F026F9794B6068CD
:100210001D68794A036879499B68A2FB0562920CC4
:10022000984701AA764903A824F03AFB03A861681D
:100230001BF0B0FC039B734AA3F10C00904240F00A
:10024000C8806068704D036870499B689847542166
:10025000286802F0C5FB064619F024FE3146204608
:1002600001F0E4FD0821286802F0BAFB064618F008
:1002700087FA3146204601F0D9FD1421286802F0A2
:10028000AFFB064618F08CFB3146204601F0CEFD50
:100290001021286802F0A4FB06461BF007FA31463D
:1002A000204601F0C3FD012023F010FD064613F0A7
:1002B00021FB304602F0B0FC012023F007FD06468A
:1002C00012F0ACF8304602F0A7FC012023F0FEFC4F
:1002D000064615F01BFF304602F09EFC44212868BC
:1002E00002F07EFB06460EF073F92046314601F01F
:1002F0009DFD1821286802F073FB054616F074FF77
:100300002946204601F092FD282023F0DFFC002141
:10031000054618F0ABFD2046294601F087FD002276
:1003200013464DF2BD11606900F02CFBB2EE040AD9
:1003300000F0DEFF00F058FFDFED357AB4EEE70A9B
:10034000F1EE10FAB0EE408A3DDD042023F0BEFC51
:10035000DFED307A68EE277A0022FCEEE77A054678
:1003600017EE901A04F082FB2946204601F05EFD4C
:1003700018EE100A24F08CFC6568024628680B46CB
:10038000866825492846B047606900F0B5FA94F8B8
:10039000A430DB0703D51548012101F023F81F4CD9
:1003A0002368DA68986992F89C1107F0E7F92368E6
:1003B000986A03F0A7F92368586A02F0C3FF04B0F3
:1003C000BDEC028B70BD6068154903689B68984757
:1003D000DAE753F8042C511E002A43F8041C3FF7B7
:1003E00030AF02A923F0C2FF2BE700BFAC02002010
:1003F000AE020020D001002083DE1B433417030827
:100400004421030898050020180300205017030812
:10041000CDCCCC3D0024744968170308C8020020E5
:100420008C170308F8B50F4CFFF7D8FE00252746B8
:1004300010E06E1CC5F30031B6B200F0D3FF38688F
:10044000354600210A4601F0F7FC2068032100220E
:1004500001F0F2FC2368044893F8A420D207E8D402
:100460001846EEE7C8020020AC02002010B5054C8B
:100470004C21204600F06CFFA01C4D21BDE810402F
:1004800000F066BFAC02002000487047AC170308BC
:1004900000487047BC1703080D4B0F2810B41B68A9
:1004A00013DC03EB4002C1F30B01B2F8044104EB8F
:1004B000C000013403EB4003A4B2072CA2F80441AE
:1004C000998084BF0023A2F804315DF8044B704783
:1004D000B002002038B5094B04461C201C6023F0F4
:1004E000F5FB082205464FF47A7104F031FB2846EB
:1004F0002560034904F02CFC204638BDB0020020E2
:100500009904000810B54879097920F09FFF064941
:10051000044622F03DFB4FF6FF73B0F1FF3F14BFDE
:100520002046184600B210BDCC6F030870B50446D3
:10053000FFF7E8FF012201460646206804F09EFB13
:100540000F28054600D970BD04EB0010803500214E
:10055000102204EB4505043027F0AAFE00233146A3
:100560002068AB80012204F0D5FB20680121BDE8A2
:10057000704004F027BC00BF88422DE9F843804654
:10058000894629D0821C914226D0064636F8025F61
:10059000B8F80030AB42144602F102070FD836F823
:1005A000023C9D421AD2023A2380144632F8023DA0
:1005B0009D42F9D34F4525800ED03A46E6E7C8EB79
:1005C00006035B1004D05A00B81A414627F055FEC6
:1005D0004F45A8F80050F0D1BDE8F8831446E9E78C
:1005E0002DE9F00102F1FF3808EBD8784FEA6808EE
:1005F0004145B8BF0C464CDA651C6C0004F100465E
:10060000013E30F8257030F816C02646BC45064439
:1006100000EB850504D9013C00EB440530F814706B
:10062000444526F8027CE7DBD60705D4023A02EB04
:10063000D272B4EB620F20D0621E02EBD2728C42F7
:100640004FEA620215DD30F81260B34206D810E0BE
:1006500030F81560B3420AD914462A46551E05EBF8
:10066000D575914220F814604FEA6505F0DB00EB88
:1006700042052B80BDE8F00170470134640004F1AD
:100680000042013A013C30F812202A8000EB440578
:10069000D2E700EB41050C46C6E700BF2DE9F84F55
:1006A0000B1A212B8246934640F39380002A6BD08D
:1006B00000F102099B10BAF802403AF8132031F811
:1006C000020C94420BF1FF3B44D2824246D3844257
:1006D00051D2BAF80050AAF8000021F8025CBAF82A
:1006E0000260BAF80040A6420F464B461DD20233C4
:1006F000984633F8026BA642FAD3A542A7F102034B
:1007000018D93B1F1F4633F80259A542FAD8B845FD
:1007100013D2434623F8025B3E80B8F80260BAF871
:10072000004037F8025CA642E1D3A5429846A7F103
:100730000203E6D81F46B845EBD340465A46FFF7BA
:10074000ADFFCAEB0803212B41DDBBF1000F1CD02C
:100750004146AFE784420ED38242BAD3BAF80000D2
:10076000AAF800202AF81300BAF8026031F8025CF7
:10077000BAF80040B7E7BAF80060AAF80260AAF831
:10078000004031F8025CAEE788465E10B41E64108B
:10079000651C0AEB450500E0013C50462146324607
:1007A00035F8023DFFF71CFF002CF5D1BAF8002008
:1007B00038F8023C28F8022DCAEB080462105046B3
:1007C0000021FFF70DFF032CF0DCBDE8F88FBDE83A
:1007D000F88FBDE8F88F00BF10B584B00446FFF76E
:1007E00091FE0146206804F039FA72B604EB00135A
:1007F0006C4653F8040F59689A68DB680FC462B6F8
:100800000622684604A9FFF749FF684604A9FFF7D6
:10081000B3FEBDF80410BDF80630BDF80820BDF8E1
:100820000A000B4413441844800804B010BD00BFF4
:1008300001207047002070470120704710B5054B1C
:1008400003600446406820F0F9FC034B2360204617
:1008500010BD00BFE0170308501E030810B5064B7B
:1008600003600446406820F0E9FC044B2360204606
:1008700002F0D2F9204610BDE0170308501E03080D
:1008800038B540680D460A4927F0E4F8044670B1CF
:10089000284628F0CEF8012102462346284627F0B4
:1008A0001BFC0546204626F033FE284638BD38BDE1
:1008B000D417030810B503680A4A0446A3F10C00D4
:1008C000904282B002D1204602B010BD53F8042CF1
:1008D000511E002A43F8041CF5DC01A923F046FD53
:1008E000F1E700BF980500200B460068114647F26B
:1008F000693200F017BB00BF38B5046805462CB15B
:10090000204600F0E1F9204602F086F900232B6032
:1009100038BD00BFF8B50C460546FFF7EDFF0C20CB
:1009200023F0D4F9074600F093F92F606CB16C689E
:10093000AE68B44209D0394600E0296854F8040B87
:1009400003689B689847A642F7D1F8BD10B50468C4
:100950004CB1204600F0E2F900B110BD064800F0AD
:1009600023FC0548F9E7054B05491B6858680368EF
:100970009B689847204610BDB4020020C8020020A2
:100980000018030800B583B0ADF800106946ADF853
:100990000220ADF80430FFF7D9FF03B05DF804FB87
:1009A000F8B542680368D31A9B1004460F4605D079
:1009B0005A00934226D96FF0030600E00426304621
:1009C00023F084F9054694E809001B1A9B109A004D
:1009D0003968AF1807D045F8231094E809001B1AAE
:1009E0009B109A00AF1823B10146284627F045FC1A
:1009F0002068043708B102F00FF92E44A66084E89D
:100A0000A000F8BDB2F1804FD5D2DE00D7E700BF1D
:100A100038B543688468A342024606D009680BB122
:100A2000196043680433536038BDFFF7B9FF38BD20
:100A30002DE9F0410646002384B043608360C36023
:100A4000054646F8043B102023F040F904AC8046EC
:100A50006E496F4F04F0CEFF44F8048D30462146B6
:100A6000FFF7D6FF01AA6B49204623F019FF204665
:100A700003F06AFB039BA3F10C02BA42804640F0EC
:100A8000B7802046B8F1000F5ED0624901AA23F07A
:100A900007FF102023F01AF921465F4A804604F030
:100AA00085FA039BA3F10C00B84277D1B8F1000F8F
:100AB00005D030462146CDF80C80FFF7A9FF01AAEA
:100AC0005649204623F0ECFE204603F03DFB039BF5
:100AD000A3F10C02BA42804649D1B8F1000F1ED0F2
:100AE0004E4901AA204623F0DBFE102023F0EEF849
:100AF00021464B4A804604F059FA039BA3F10C00AF
:100B0000B84240D1B8F1000F05D030462146CDF8AB
:100B10000C80FFF77DFF284604B0BDE8F08101AAF4
:100B20004049204623F0BCFE204603F00DFB039B0A
:100B3000A3F10C02BA4280464BD1B8F1000FEAD0C3
:100B400001AA20463749CEE701AA374923F0A8FE7B
:100B5000204603F0F9FA039BA3F10C02BA42804647
:100B600027D1B8F1000FAAD020462F498EE753F8BD
:100B7000041C481E002943F8040CAEDC104602A9F0
:100B800023F0F4FBA9E753F8042C511E002A43F884
:100B9000041CB7DC02A923F0E9FBB3E753F8042CEB
:100BA000511E002A43F8041C80DC02A923F0DEFB5E
:100BB0007CE753F8041C481E002943F8040CD0DCE1
:100BC000104602A923F0D2FBB8F1000F3FF477AF33
:100BD000CAE753F8041C481E002943F8040CACDC97
:100BE000104602A923F0C2FBB8F1000F93D0A7E78B
:100BF00053F8041C481E002943F8040C3FF741AF8A
:100C0000104602A923F0B2FB3BE700BF3C180308E3
:100C100098050020441803085418030870180308A6
:100C20007C180308801803085C18030810B5054CED
:100C3000204600F0A3FA20460349044ABDE81040CC
:100C400023F069B8B4020020B5080008880100202C
:100C50000022026042608260704700BF2DE9F041CF
:100C600090E86000B54282B080461CD0154F55F820
:100C7000044B3CB12368A3F10C02BA4215D12046C3
:100C800001F0CAFFAE42F2D1D8F800000023C8F844
:100C90000030C8F80430C8F8083008B101F0BCFFD3
:100CA00002B0BDE8F0812846F0E753F8041C481E66
:100CB000002943F8040CE2DC104601A923F056FB9E
:100CC000DDE700BF9805002010B50446FFF7C6FF1A
:100CD000206808B101F0A0FF204610BD10B54368A0
:100CE00053F8044D436082B044B123680A4AA3F12B
:100CF0000C00904204D1204601F08EFF02B010BDDE
:100D000053F8042C511E002A43F8041CF3DC01A9FB
:100D100023F02CFBEFE700BF98050020F8B590E822
:100D20005000B4420F4602D10DE0A6420BD054F859
:100D3000045B384605F10C01062227F086FA0028EC
:100D4000F3D12846F8BD00252846F8BD2DE9F04727
:100D500090E8200145458AB00F4622D0012655F87B
:100D6000044BD7F80090E389B4F80CA00093238AD1
:100D7000019322680292A37C0393E37C0493A0680E
:100D800023F086FFCDE90601626808925346324699
:100D9000D9F8084004493846A047A84506F101069D
:100DA000DDD10AB0BDE8F08790180308F8B54268B5
:100DB0000368D31A9B1004460F4605D05A0093428D
:100DC00026D96FF0030600E00426304622F07EFFAD
:100DD000054694E809001B1A9B109A003968AF1861
:100DE00007D045F8231094E809001B1A9B109A00BD
:100DF000AF1823B10146284627F03FFA2068043790
:100E000008B101F009FF2E44A66084E8A000F8BDF7
:100E1000B2F1804FD5D2DE00D7E700BF2DE9F04711
:100E200090E8A00084B0BD428146019124D08A465A
:100E300001F10C0801E0AF421ED02E6840460622A8
:100E400006F10C012C46043527F0FFF90028F2D1F9
:100E500056B13368184AA3F10C00904220D13046B5
:100E600001F0DAFEDDF804A0C4F800A0134827F072
:100E700085FB04B0BDE8F087D9F808309F420AD05E
:100E8000019B17B13B60D9F804700437C9F80470AE
:100E900004B0BDE8F087484601A9FFF787FFE8E7FF
:100EA00053F8042C511E002A43F8041CD7DC03A974
:100EB00023F05CFAD3E700BF98050020EC18030884
:100EC000F8B542680368D31A5B1004460F4605D094
:100ED0005A00934221D96FF0010600E00226304605
:100EE00022F0F4FE054694E809001B1A5B105A0034
:100EF0003988AF1818BF25F8131043B9023708B165
:100F000001F08AFE2E44A66084E8A000F8BD0146E8
:100F1000284627F0B2F92068F0E7B2F1004FDAD2A4
:100F20009E00DCE72DE9F04190E89000BC4282B0E1
:100F3000884602D114E0A74212D054F8045B2E8AEE
:100F40009642F8D1AE894645F5D1596898688142F4
:100F500009D0881CED8901B10D80A7425860ECD101
:100F600002B0BDE8F081184605F10E010192009330
:100F7000FFF7A6FF009B019ADDE700BF014B03606E
:100F8000704700BF2019030810B5034B03600446E7
:100F900001F042FE204610BD20190308F0B50B6891
:100FA0001A78232A87B00C4671D053F80C3C022BD8
:100FB0006DD9084600224749022323F04EF9461C0A
:100FC000054664D023681B5C232B60D00223204697
:100FD00040492A4623F00CF9431C074653D03D49AB
:100FE00020463A46022323F038F9064601302168AC
:100FF00050D08B5D232B4DD051F80C2C9542C5EB76
:1010000007034DD82A46214602A823F005FC02A971
:1010100004A802F0F5FE142022F058FE054600F068
:10102000ADF8BDF81010BDF81220BDF81430A9813C
:101030000120A874EA812B82721C052320462649D0
:1010400023F0D6F8421C226852F80C2C14BFC6EBD1
:1010500000030346964223D82146324603A823F0D4
:10106000DBFB284603A923F06CF8039B1B4CA3F180
:101070000C00A04217D1029BA3F10C00A0421DD18D
:10108000284607B0F0BD2168154827F0C3F90020B5
:1010900007B0F0BD134827F0BDF9002007B0F0BD40
:1010A000114823F08AFC53F8042C511E002A43F8FF
:1010B000041CE0DC01A923F059F9DCE753F8042C07
:1010C000511E002A43F8041CDADC03A923F04EF970
:1010D000D6E700BF40190308A019030898050020AF
:1010E00044190308A81903088819030838B51546D8
:1010F000FFF754FF044618B128462146FFF78EFE3D
:10110000204638BDF0B583B014460F4601AA1949F0
:101110001E46054623F0C4FB21463846FFF73EFF36
:10112000044660B1828933889A420BD02368124A00
:10113000A3F10C00904212D1204601F06DFD28462B
:1011400003B0F0BDC28973889A42EFD1B388028A96
:101150009A42EBD12846214623F021FBE6E753F8DB
:10116000042C511E002A43F8041CE5DC01A923F0DD
:10117000FDF8E1E7442103089805002010B500229E
:10118000074B03600021044681608274C27482812F
:10119000C28102824260034923F094F9204610BDC7
:1011A000A405002044210308002282600022044993
:1011B0008274C2748281C2810282426023F082B949
:1011C00044210308837C10B5044633B9044B054918
:1011D0001B68586803689B689847204610BD00BF8D
:1011E000C8020020D4190308F0B52DED028B837CD2
:1011F00087B004460BB9C37C23BB0023214605A856
:10120000039323F0C0FA04A805A902F0DBFE059BB6
:10121000214DA3F10C00A84233D1049E03A930460E
:1012200028F0AEFA039BB342B0EE408A10D9049B7B
:10123000A3F10C00A84219D1B0EE480A07B0BDECEA
:10124000028BF0BD90ED020A07B0BDEC028BF0BD41
:10125000124BE7891B68268A586822680168A389AF
:10126000009701968C680E49A047E0E753F8042CDC
:10127000511E002A43F8041CDEDC05A923F076F891
:10128000DAE753F8042C511E002A43F8041CC4DC8E
:1012900002A923F06BF8C0E798050020C8020020DF
:1012A000301A030810B5044623F06DFA204610BD2D
:1012B00008B5837C0BB9C37C43B9074900220323DB
:1012C00022F096FF013018BF012008BD40680030B1
:1012D00018BF012008BD00BF4C1B030807EE101A01
:1012E000F8EEC77A0122C0ED027A4160C2747047FD
:1012F000012280ED020AC274704700BF837C10B5E2
:1013000004461BB90123C37423F049FA204610BDDB
:1013100038B5044600781FF09FFF22780B4B6178A8
:1013200053F822200125506805FA01F120EA010155
:1013300051602178627853F82130AA40D96803209F
:1013400000FA02F221EA0202DA6038BD501B0308FB
:1013500010B5C1F3031301F00F010446037041708F
:10136000FFF7D6FF204610BD10B4094B0178427834
:1013700053F8213052001C6803219140012024EAD7
:10138000010100FA02F20A431A605DF8044B70474B
:10139000501B03080278124BF0B453F82220447813
:1013A000176864000326A640012527EA060605FA09
:1013B00004F43443146051B90178427853F8213071
:1013C0004FF4803101FA02F29A61F0BC7047017863
:1013D000427853F8213095409D61F0BC704700BFC2
:1013E000501B030810B40B4B0478427853F8243098
:1013F00041B94FF4803000FA02F29A6108465DF874
:10140000044B7047012000FA02F29A6108465DF829
:10141000044B7047501B0308002202604260826048
:10142000C2607047F8B5046900F10806B4420F467F
:101430004FF000050DD02069036839465B69984775
:101440008542B8BF0546204622F0E0FCB042044683
:10145000F1D12846F8BD00BFF0B52DED028BC14B90
:10146000036383B0044600F1440300F1B00100229D
:1014700043F80C2C43F8082C43F8042C0C338B4213
:10148000F6D194F8A430B84A03F0F5036FF345138E
:1014900084F8A430212101A81460FFF759FF01212D
:1014A00001A8FFF777FF4FF48C7022F00FFC0921A1
:1014B0000A224FF41653054605F0E4FC256010207F
:1014C00022F004FC0546FFF7B3FA284665610121C6
:1014D000FFF720FA206810B103685B689847002581
:1014E00025601C2022F0F2FBA0490160034600F1B8
:1014F0000802026142610572C56085619C496360B2
:10150000012204F1300022F0DDFF9A492368C86807
:101510004FF6FF02024042F0BF6242F40032CA605E
:10152000002B00F03181944D0022134660694CF687
:10153000DF11FFF727FA0021FFF7D0FEFFF7B8FE13
:1015400094F8A43080F00100002260F3000384F8D6
:10155000A4306069134648F2AE01FFF713FA002188
:10156000FFF7BCFEFFF7A4FE94F8A430002260F35E
:10157000820384F8A4306069134643F66621FFF7BE
:1015800001FA94F8A410C1F38001FFF7A7FEFFF75A
:101590008FFE94F8A430002260F3451384F8A43041
:1015A0006069134645F68B31FFF7ECF90121FFF72F
:1015B00095FEFFF77DFE236894F8A420196860F378
:1015C000041284F8A42018468A68904742F6AA229A
:1015D0000023606944F2ED11FFF7D4F94FF416517E
:1015E000FFF77CFEFFF700FE28684FF48C71B0EE29
:1015F000408A01F0F5F9BDEEC88A0546352136224C
:1016000018EE103A05F03EFC2B6828469B68984778
:10161000282022F05BFB054601F04CFE2B6865623A
:101620009B6828469847442022F050FB054602F06C
:10163000C3F8A5624FF4927022F048FB4D4D064668
:10164000FEF748FFE9684D4BE6624FF6FF020A409D
:1016500042F0BF624FF0200E5021102042F40032C1
:1016600040273026EA6083F837E3002283F82D0311
:1016700083F8367385F8226083F8000383F8121329
:1016800083F84D1383F8251383F8261383F8271363
:1016900083F834136069134645F29E51FFF772F9DF
:1016A0003749FFF71BFEFFF79FFDBCEEC00A002283
:1016B000134684ED0D0A60694AF25D51FFF762F945
:1016C0000121FFF70BFEFFF78FFDD4ED0D7AA06A25
:1016D000B0EE408AB8EE670A02F02EF8B0EE480A83
:1016E000A06A02F04DF8282022F0F0FA054606F034
:1016F00023F82B68A5619B6828469847182022F09C
:10170000E5FA054605F0C2F92B68A5609B682846F6
:1017100098474FF4D07022F0D9FA054608F00AFF36
:101720002B68E5609B6828469847042022F0CEFA93
:10173000054601F02BFB134B2B60284625621AF05F
:10174000FBF9282022F0C2FA054606F0D3F92561FC
:10175000012022F0BBFAE061204603B0BDEC028B11
:10176000F0BD00BFA4050020C8020020801B0308B4
:10177000A01B030800ED00E01803002000E100E0DA
:10178000A0860100F05E030842F6AA2244F2ED11A1
:1017900060690D4DFFF7F6F84FF41651FFF79EFD07
:1017A000FFF722FD4FF48C712868B0EE408A01F0FB
:1017B00017F9BDEEC88A064618EE103A09210A222A
:1017C00005F060FB2660AFE6180300202DE9F04F1E
:1017D0002DED048BBC4B0360B3B0074688464FF435
:1017E0004C4044F68A5100220DF1230301F014FC11
:1017F00008B98DF823003846B449012222F050FF81
:1018000098F8A4309C0700F158819DF82320002A05
:1018100040F07681180740F1FF803846AC49042239
:1018200022F03EFFD8F80C3093ED448A8DED0C8AFF
:10183000D3ED438ACDED0D8AD3ED427ACDED0E7A0C
:1018400093F83430DB0740F12B819FEDA29AC7EE6D
:10185000897AC8EE898A88EE098A17EE900A23F001
:1018600017FA044618EE900A0D4623F011FA0246C4
:101870000B4618EE100ACDE90223CDE9004523F00E
:1018800007FA12AECDE90401934A8021304626F0D2
:10189000D9FF924904460622384622F001FF31461C
:1018A000802C34BF2246802222F0FAFED8F80C1099
:1018B00091F89C31032B2EDD9FED868A03248B68E3
:1018C00091F8342053F82430D3ED0B7A93ED087A55
:1018D000F8EEE77AD007C7EE877A04F1010448BF33
:1018E000C7EE887A17EE900A23F0D2F97C4ACDE948
:1018F00000018021304626F0A5FF3146802834BF04
:1019000002468022384622F0CBFED8F80C1091F81F
:101910009C31A342D3DC0DF13C0948460CAA06F0E9
:1019200007FCD8F80C30DDED117A93F83430D90784
:1019300040F1A8809FED678AC7EE887A17EE900A7B
:1019400023F0A6F9DDED107AC7EE887A04460D463D
:1019500017EE900A23F09CF9DDED0F7A87EE888A66
:1019600082468B46CDE90045CDE902AB18EE100A60
:1019700023F08EF9584ACDE904018021304626F043
:1019800061FF584904460622384622F089FE802C21
:1019900034BF22468022314622F082FED8F80C4025
:1019A000204606F075FC94F83430DA0744BFDFEDCA
:1019B000497A80EE270A10EE100A23F069F9CDE982
:1019C0000001D8F80C309FED487AD3ED567AC7EE77
:1019D000277A17EE900A23F05BF9444ACDE9020119
:1019E0008021304626F02EFF3146802834BF024643
:1019F0008022384622F054FE98F8A440C4F38004B4
:101A0000BCB138463A49022222F04AFE384633B089
:101A1000BDEC048BBDE8F08FD8F8180005F0BEFED1
:101A2000002800F0C58138463249042222F038FEF1
:101A3000F8E64B4622464AF616404BF2D3110F9475
:101A40001094119401F0E8FA002840F06681DDF866
:101A500040800F9D454500F0BF81274A2C4605F187
:101A60001009631B143459F80330A3F10C009042A1
:101A700040F0CC814445F4D10F980028C1D001F04A
:101A8000CBF8BEE717EE900A23F002F9044610984F
:101A90000D4623F0FDF89DED0F8A82468B4661E7E7
:101AA00017EE900A23F0F4F8044618EE900A0D465B
:101AB00023F0EEF802460B46DBE638460F490522D6
:101AC00022F0EEFDAEE600BFA4050020A41B030833
:101AD000B81B03083333CB41CC1B0308E01B0308BE
:101AE000E81B0308F01B03080080BB45101C03081B
:101AF000301C0308C01B030898050020A81B03081E
:101B00003846B749042222F0CBFDD8F80C0009A9C9
:101B100006F0DCFAD8F80C00C36933B1036A09A9EE
:101B2000143001229847D8F80C0090F83430DDEDDD
:101B3000097AD90700F1238117EE900A23F0A8F85B
:101B400004460A980D4623F0A3F89DED0B8A024641
:101B50000B4618EE100ACDE90223CDE9004523F02B
:101B600097F812AECDE904019E4A8021304626F056
:101B700069FE9D4904460622384622F091FD314611
:101B8000802C34BF2246802222F08AFDD8F80C1027
:101B900091F89C31032B2EDD9FED948A03248B68F2
:101BA00091F8342053F8243093ED0B7AD3ED087A72
:101BB000B8EEC77AD207C7EE277A04F1010448BF0E
:101BC000C7EE887A17EE900A23F062F8884ACDE9CA
:101BD00000018021304626F035FE3146802834BF92
:101BE00002468022384622F05BFDD8F80C1091F8AE
:101BF0009C31A342D3DC0B98099B0A9C0F900DF1FA
:101C00003C094A460CA81193109406F091FAD8F8B2
:101C10000C30DDED0E7A93F83430DB0740F1CE80E6
:101C20009FED728AC7EE887A17EE900A23F030F89B
:101C3000DDED0D7AC7EE887A04460D4617EE900A60
:101C400023F026F8DDED0C7A87EE888A02460B46F3
:101C5000CDE90223CDE9004518EE100A23F018F86B
:101C6000604ACDE904013046802126F0EBFD614950
:101C700004460622384622F013FD802C34BF22464B
:101C80008022314622F00CFDD8F80C40D8F81830EC
:101C9000DFED597AD3ED088A94F83430DD0768EE29
:101CA000A78A48BFDFED517A204648BFC8EEA78A11
:101CB00006F0EEFA94F83430DC0744BF9FED4B8A0F
:101CC00080EE088A18EE900A58BFB0EE408A22F0E3
:101CD000DFFFCDE9000118EE100A22F0D9FFCDE9AF
:101CE0000201D8F80C309FED457AD3ED567AC7EE55
:101CF000277A17EE900A22F0CBFF414ACDE9040182
:101D00003046802126F09EFD3146802834BF0246B1
:101D10008022384622F0C4FC6EE6DDF83CA0DDF8F7
:101D20004080C2455AD00AF1140455460AF1100BFE
:101D3000CAEB050354F8140C5BF8039022F0A8FFDB
:101D4000CDE9000154F8100C22F0A2FF4B46CDE97A
:101D500002012C4A2021304626F074FD143520283B
:101D600034BF024620223146384622F099FCA8456D
:101D700004F11404DCD10F9DDDF840806AE69FED8C
:101D80001B8AC7EE887A17EE900A22F081FFDDEDFC
:101D90000A7AC7EE887A04460D4617EE900A22F0BA
:101DA00077FFDDED0B7A02460B4687EE888AD0E698
:101DB00038461549032222F073FCA6E617EE900A76
:101DC00022F066FF04460D980D4622F061FF9DED5E
:101DD0000C8A02460B463BE728464EE6454639E666
:101DE000B01B0308CC1B0308E01B03083333CB41B3
:101DF000E81B0308F01B0308000070420080BB458D
:101E0000F81B0308201C0308C81B030853F8041C14
:101E100001F1FF3E002943F804EC3FF72BAE3146B9
:101E2000079222F0A3FA079A24E600BF08B50B68D0
:101E300008469B68984708BD2DE9F04F072983B0F5
:101E40008B46824690463CD0012301930BEB4B021C
:101E500092000AF1380188188C584668B4421CD0A8
:101E6000244F07EBCB02556805F001096D1006E021
:101E7000284457F83B2041469047A6420DD054F8DD
:101E8000040BB9F1000FF3D0415957F83B20284417
:101E90008A5841469047A642F1D1BBF1070F02D0C4
:101EA00003B0BDE8F08F9AF8A4309B0702D5019BE0
:101EB000002BF5D1DAF80C0003B0BDE8F04F06F0C6
:101EC00041BC90F8A410D2F1010238BF002262F3A5
:101ED000410180F8A41032B9C9B2080744BF62F3C7
:101EE000C3018AF8A410DAF8180005F057FC019035
:101EF000ACE700BFE81C030801EB410138B53830FE
:101F00008B00C518C0586C68A0420DD0036893427E
:101F100018BF031D03D108E00168914205D0A34218
:101F2000184603F10403F7D138BD011D8C4206D0D9
:101F3000631A9A1003D0920026F09FF96C68043C53
:101F40006C6038BD70B50C46064609B90AE02C46EF
:101F50003046E168FFF7F6FFA568204600F05CFE1A
:101F6000002DF4D170BD00BF10B5054B044640F8FC
:101F7000043BE168FFF7E6FF024B2360204610BDFB
:101F8000801B0308501E0308074B10B5044640F899
:101F9000043BE168FFF7D6FF044B2360204600F0C6
:101FA0003BFE204610BD00BF801B0308501E0308E7
:101FB000F8B542680368D31A9B1004460F4605D053
:101FC0005A00934226D96FF0030600E004263046FB
:101FD00021F07CFE054694E809001B1A9B109A002C
:101FE0003968AF1807D045F8231094E809001B1A88
:101FF0009B109A00AF1823B10146284626F03DF900
:102000002068043708B100F007FE2E44A66084E87B
:10201000A000F8BDB2F1804FD5D2DE00D7E700BFF7
:1020200000B501EB4101383000EB810083B043681B
:10203000816801928B4207D00BB11A604368043368
:10204000436003B05DF804FB01A9FFF7B1FFF8E7B7
:1020500030B4074A074D084C0849C26400220565A0
:102060004465816502704264826430BC704700BF81
:102070000123456789ABCDEFFEDCBA987654321068
:10208000F0B492B10C460023A57894F801C0CF5C5F
:10209000E6782D0445EA0C253D4345EA0665C55022
:1020A00004339A4204F10404EED8F0BC704700BF38
:1020B00030B492B1034600240D68055551F8045B15
:1020C0002D0A5D7031F8025C9D70043411F8015CDA
:1020D000DD70A24203F10403EED830BC704700BFAC
:1020E0002DE9F04F834695B004A840220BF150042F
:1020F00094E83001DBF84C90DFF8E0A3DB4FDC4ED6
:10210000FFF7BEFFDB4A0192DB4A0292049ADB4BE7
:10211000DFF8CCC3DFF8CCE3D948DA4991444B442B
:1021200028EA040205EA040942EA09094B4404EBDF
:10213000736325EA03020392059A9044039A03EA23
:10214000040942EA0909C244069ACA4403EB3A5A0E
:1021500024EA0A090AEA0308154449EA0808AC44D3
:10216000079AC4440AEBFC3C23EA0C080CEA0A0573
:102170001444A64448EA0505089C0A9A75440CEBE9
:10218000B5252AEA050E274405EA0C044EEA0404A4
:102190003B442344099F05EB736303EA05043E4473
:1021A0002CEA030756443C4306EB040E03EB3E5E69
:1021B00025EA0E0610440EEA0304344384440CEB73
:1021C00004000B9C0D9FDDF838A00EEBF03023EAE5
:1021D0000006214400EA0E04344329440C9E019D6C
:1021E00035440195214400EBB121019AA64C2EEA19
:1021F000010601EA000535431A442A44029BA34E16
:10220000A34D01EB72621F4420EA020902EA0103B6
:10221000BE4449EA0309F14402EB3959AAF5244EB8
:1022200021EA090C09EA0208AEF14F0E70444CEAAB
:1022300008080F9F974B804409EBF83822EA080EF4
:102240003B4408EA09004EEA000019440144109892
:10225000059F08EBB12C06440CEA080129EA0C00A2
:10226000014332440A4411990CEB72630C4403EAB3
:102270000C0228EA03010A43A144914403EB395EAE
:10228000129A6FEA0E0404EA0C0115440EEA0302E6
:102290000A43A84490440EEBF836139D7E4A7F49CA
:1022A0006FEA060806EA0E002A4408EA0305944489
:1022B0000543654406EBB52505EA0E023944344072
:1022C0000B4414430A987649764ADFF81CC21C4432
:1022D000754B05EBF46404EA0607034405EA0808B5
:1022E00047EA08089E440EEB08000F9B099F04EB89
:1022F000F05000EA050E194424EA05034EEA0303F0
:102300000E44F118049E00EBB14120EA040332446C
:1023100001EA0406154446EA0302644B644E2A446B
:1023200001EB32323B4402EA000E1C4421EA000376
:102330004EEA0303234402EBF36303EA0108D444A7
:1023400022EA010448EA04046044204403EBF05EFE
:102350001398584D0D9FDFF894810EEA020406444D
:1023600023EA0200204331440E180899524C0EEB28
:10237000B64606EA03000D442EEA03012A4440EA69
:102380000105154406EB35353C4405EA0E0C2344A3
:1023900026EA0E044CEA04041C444848129B079F9A
:1023A0004749484A05EBF46404EA060C184425EA58
:1023B00006034CEA030386440EEB030004EBF050E3
:1023C00000EA050E394424EA05034EEA03030E44ED
:1023D000F1180C9B119FDFF818C100EBB14101EA25
:1023E00004061A4420EA0403154446EA0302364B65
:1023F000364E2A4401EB32323B4402EA000E1C44C2
:1024000021EA00034EEA03032344314D069C0B9F4F
:1024100002EBF36303EA010E254422EA01044EEACB
:1024200004042844051903EBF55505EA020EBC44E3
:1024300023EA02004EEA00006144014410980C9F18
:1024400005EBB144064425EA030104EA0300014315
:1024500032440A4409991F481F4EA1F5B82E04EBD7
:10246000323284EA050CAEF2BE6E43E0AF0F7CF56B
:102470002AC68747D8988069AFF7448B78A46AD773
:10248000134630A8019546FD937198FD2211906B7B
:102490008E4379A6BED75C892108B44962251EF611
:1024A000515A5E26AAC7B6E940B340C05D102FD688
:1024B00081E6A1D8C8FBD3E7E6CDE121D60737C333
:1024C000870DD5F4ED145A4505E9E3A98A4C2A8D08
:1024D000F8A3EFFC22619D6D44EABEA456B7C7E89D
:1024E000DB702024EECEBDC15314440297FF2A4373
:1024F000D9026F678CEA020C7344DFF838E3BA49FB
:10250000634402EB3373BE4482EA040C8CEA030C8E
:10251000754405EB0C0E0F9D129F03EB7E5E284465
:1025200083EA020585EA0E05044460190EEB30408B
:1025300039448EEA030444400A441119059A089F5D
:10254000AA4DAB4C00EB7121164480EA0E0C8CEACC
:10255000010C3344A74EA84A634401EB33733E4455
:1025600081EA000C0B9F8CEA030CB6440EEB0C06C0
:1025700003EB76563A4483EA010E8EEA060E1044C7
:1025800000EB0E0206EB3242554486EA030050404F
:1025900029440D181198049FDFF89CE2974902EB3B
:1025A000752582EA060C04448CEA050C1C4464443C
:1025B00005EB3474BE4485EA020C8CEA040C7644C4
:1025C00006EB0C0E8E48079E0A9F8E4B04EB7E5E38
:1025D000304484EA050686EA0E06024490190EEBA2
:1025E000304039448EEA040242400D44A9180D9A45
:1025F000109F854E854D00EB712180EA0E0C13442F
:102600008CEA010C2344634401EB33733E4481EABA
:10261000000C139F7E4A7F4C8CEA030CB6440EEBF1
:102620000C0603EB76563A4483EA010E8EEA060E58
:10263000104400EB0E0206980B9FDFF800C2DFF893
:1026400000E206EB3242054486EA0300504029448A
:102650000D180499704802EB75250C4465EA0601D3
:1026600051401C440C4405EBB464B84464EA0209CC
:1026700089EA05094644129F6849694BDFF8C4811D
:102680004E4404EBB656BC4466EA05076740624414
:1026900002EB070C099A109FDFF8AC9106EB7C4C1B
:1026A00096446CEA04027240754415440CEBF5251F
:1026B000384465EA060282EA0C020444A018079C2A
:1026C000584F05EBB06060EA0C0221446A40314487
:1026D000114400EBB151AAF5801A61EA0504AAF68B
:1026E000833A4440E244059EDFF860C1A24401EB16
:1026F0007A4262EA000433442B444C401E194A4B90
:102700000293DFF84CA1494D494C02EBF6230C9E95
:1027100063EA010EB2448EEA020E5044139E7044E6
:1027200003EBB060B14460EA020A8AEA030A494452
:102730000A9E514400EBB151B04461EA030989EAB1
:1027400000094244119E4A4401EB7242B44462EAD9
:10275000000888EA01086344089E434402EBF3231F
:10276000374463EA010C8CEA020C07EB000EE644E6
:102770000F98029F069E03EBBE6E07446EEA0200AE
:102780005840394401440EEBB151354461EA03002D
:1027900080EA0E002A440D9FDBF84C60DBF85450B1
:1027A000024401EB724262EA0E003C44DBF85070D6
:1027B00048402344DBF8584003441744764407EB71
:1027C000F32715440C4404A8CBF84C60CBF85070A8
:1027D000CBF85450CBF858400021402225F068FD3A
:1027E00015B0BDE8F08F00BF0C38E5FD70BCBFBE72
:1027F000C67E9B28A9CFDE4B604BBBF6051D880427
:102800008530EFD439D0D4D9E599DBE66556ACC430
:10281000F87CA21F442229F4C3595B6592CC0C8F2B
:10282000D15D8485827E53F735F23ABDBBD2D72A7B
:1028300091D386EB81F67187FA27A1EAA72394AB9F
:1028400039A093FC144301A3E0E62CFEA111084E2D
:102850004F7EA86F2DE9F843446C1746D200131938
:102860009A424364836CC4F3C50488BF0133C4F146
:10287000400603EB5773B74205468846836409D286
:102880000444601C002408EB04013A1BBDE8F84333
:1028900025F0EABC20443246013005F1010925F05B
:1028A000E3FCC4F1800449462846FFF719FCA7421F
:1028B00002D212E026461C4608EB06012846FFF726
:1028C0000FFC04F140039F42F4D2484608EB040198
:1028D0003A1BBDE8F84325F0C7BC48463446D2E76A
:1028E00030B5037883B00446B3BB00F144052946F4
:1028F00068460822FFF7DCFB626C1949C2F3C50287
:10290000372A94BFC2F13802C2F178022046FFF79D
:10291000A1FF204669460822FFF79CFF04F15C00F6
:1029200004F14C011022FFF7C3FB00214022601C80
:1029300025F0BEFCAB1C002284F844206A7003F82A
:10294000012B03F8012B03F8012B03F8012B03F8EB
:10295000012B01211A702170204603B030BD00BF49
:102960008C010020F0B50B788BB00746C3B10D4643
:1029700001AC09AE204695F85C200D49023425F0E3
:1029800093FFB44205F10105F4D1002301A93846B3
:102990006A468DF8243021F083FF38460BB0F0BD35
:1029A000044901AA21F07CFF38460BB0F0BD00BFFE
:1029B000341C030844210308F0B4084C4160256826
:1029C000028100274FEA122C8F70CF7081F801C06E
:1029D0000A7005602060F0BC704700BFCC02002088
:1029E0008B0718BF21F003012DE9F00118BF043156
:1029F000456801F1040C1FFA8CFC2B4610E093F89B
:102A000001809A7841EA082141EA024141EA0461E1
:102A100061450A461EDA018913446A18934215D8A3
:102A2000DA781978D70902F07F041646E7D05E7885
:102A30009C7841EA062141EA044102F07F0241EA22
:102A40000262018913446A189342E9D90020BDE863
:102A5000F001704746F080068C45DE7027DA03EB04
:102A60000C02CCEB0101D47803F80C1067F3C71407
:102A7000C1F3066604F08004C1F307253443C1F3B3
:102A8000074155709170D470DC782CF0004C04F044
:102A9000800400214FEA1C2583F800C05D70DC70C3
:102AA000997044680189121B8A4200DB00BE181D20
:102AB000BDE8F001704700BF2DE9F00311F8013CBB
:102AC00011F8042C11F8034C11F8025C6FF3C713D2
:102AD00042EA042444EA054403F07F020F1F44EA5B
:102AE00002643A1901F8013CD378DD0926D1456822
:102AF0000689551BB54200F38D8017F804C092F883
:102B00000180967811F8015C4CEA082242EA0642FC
:102B100003F07F0342EA03631C44C4F3066325F019
:102B20007F051D43C4F30722C4F3074301F8044C97
:102B300001F8015C01F8032C01F8023C45682B7890
:102B40006E78AA78EC7843EA062343EA024304F05D
:102B50007F0443EA04642A4615E00289964205EBA5
:102B6000020C54DA1A7893F801809E78DC7842EAF5
:102B7000082242EA064204F07F0452EA046446D086
:102B8000634544D21A461319561BBB422644E4D16E
:102B9000D378DE09C3F3C01539D111F8046C11F8EC
:102BA000039C11F8028C11F801CC46EA092646EA8A
:102BB00008460CF07F0C46EA0C66344423F07F088C
:102BC000C4F3066CC4F30726C4F307432E432B4318
:102BD0002C4348EA0C0C82F803C0567093701470B2
:102BE00011F8042C11F8036C11F8025C11F8014C77
:102BF0004168038942EA062242EA054204F07F0066
:102C000042EA00627F1A3A449A4200DB00BEBDE805
:102C1000F003704700BE70E7094B1B68014613B90B
:102C20000BE01B684BB15A689142FAD318890244F1
:102C30009142F6D21846FFF73FBF08461EF0FEBA93
:102C4000CC0200202DE9F04F0B68446802899D6892
:102C5000DFF8ACB080460F4683B02549234638469E
:102C60004FF00009A847CA46D8F8046002E0042DD6
:102C700034D92C443B68E2789D681E4B1E49D2092A
:102C800008BF5B460093237894F801E0A078E278CF
:102C900043EA0E2343EA004302F07F0243EA026262
:102CA0000192A31B22463846A84721786578E3782D
:102CB000A278D8F8046041EA052545EA024503F008
:102CC0007F0245EA0265DB09C6EB0402B8F808306A
:102CD0002A4408BFA9449A42AA44C8DB3B68074972
:102CE0009C6852464B463846A04703B0BDE8F08F7B
:102CF0004C1C03083C1C03086C1C0308901C0308B4
:102D0000441C03080246F0B45368158900201C4691
:102D100002E0042A14D91344D9785F789E78CA094E
:102D20001A7842EA072201F07F0142EA064242EAAB
:102D30000162C4EB0301114408BF8018A942E8DB1B
:102D4000F0BC7047704700BF704700BF704700BFBE
:102D5000704700BF704700BF704700BF704700BF9B
:102D6000704700BF704700BF704700BF014B036052
:102D7000704700BFB81C030810B5034B036004463E
:102D8000FFF74AFF204610BDB81C0308014B036043
:102D9000704700BFB81C0308024B02461868FFF7D3
:102DA0003FB900BFC8020020082810B40AD80F2974
:102DB00008D8064B012453F8202004FA01F10A43F5
:102DC00043F820205DF8044B704700BFF402002058
:102DD000082810B40AD80F2908D8064B012453F844
:102DE000202004FA01F10A4343F820205DF8044B47
:102DF000704700BFD002002010B4084B417902791F
:102E000053F821300324D968520004FA02F221EA6F
:102E10000202DA605DF8044B704700BF301D030802
:102E20008279102102F0FE0201716FF3410200214C
:102E300082710160704700BF38B583799B070446F3
:102E40000CD54179064B027953F821300125596898
:102E500005FA02F20A435A60FFF7CEFF204638BD5A
:102E6000301D03082DE9F0410D4682B0044650495B
:102E7000284621F00BFA38B9A37960F34103A37116
:102E8000204602B0BDE8F08102AEA3792D68002291
:102E900046F8042D43F00203A371314628460A2266
:102EA00026F00AFD019BC0B2AB4260710CD9082824
:102EB0000AD81EF0D1F93F4D6279019B55F82220C6
:102EC00022601A782E2A0FD0A2793B4B236002F0A1
:102ED000FD02002363F3000210212046A2716371FA
:102EE000217102B0BDE8F0815F1C314638460A22EC
:102EF000019726F0E1FC019BC0B29F422071E3D212
:102F00000F28E1D818780028BAD003264FF002081D
:102F1000012710E06F281DD0762837D05E2823D0F7
:102F200001F024F80028ABD0019B1A46013301932D
:102F300050780028A4D04028F7D0EBD821280ED014
:102F40002D28EDD1A2799207EFD52046FFF754FF47
:102F5000019BEAE72046FFF76FFF019BE5E7A279B7
:102F600042F00102A271E0E7A2799007DDD5627913
:102F7000217955F822204900D06806FA01FC20EAA0
:102F80000C0007FA01F10143D160CEE7A279910765
:102F9000CBD56279217955F822204900D06806FA0C
:102FA00001FC20EA0C0008FA01F10143D160BCE702
:102FB000541D0308301D03080000024038B50346C5
:102FC000407919791EF042FA084904461FF0E0FDE5
:102FD000013008D0142020F079FE214605461EF06D
:102FE00043FB284638BD002038BD00BFE86B03080E
:102FF000024A02600022C260704700BF601D0308E1
:1030000010B5044B036000230446C360FFF704FEC1
:10301000204610BD601D030870B586B0114E9DF8A6
:103020001440ADF8080004F0FE041D46ADF80A1087
:10303000ADF80C2030680C4B049501AA6FF34104E5
:1030400005218DF814400193FEF7F6FE9DF814203B
:1030500012F0010003D0930744BF049B2B6006B01D
:1030600070BD00BFC8020020601D030830B587B0E6
:103070000E4C9DF81450ADF8080005F0FE05ADF8B3
:103080000A10ADF80C202068094C049345F00205A5
:10309000062101AA8DF814500194FEF7CDFE9DF88B
:1030A000140000F0010007B030BD00BFC8020020CE
:1030B000601D030810B5034B03600446FFF756FE7E
:1030C000204610BD701D030810B5054B0360044673
:1030D000FFF74CFE2046FFF79FFD204610BD00BFC6
:1030E000701D030810B50446FFF750FE201DFFF7C2
:1030F00097FE064B2360FF2100234FF0FF32E16073
:10310000226123766361204610BD00BF701D030855
:10311000002905DBC3689942A8BF194601617047C1
:1031200000210161704700BF036981F30801002B92
:10313000C16004DB9942B8BF0B46036170470023AE
:1031400003617047C0687047837A4FF0FF320261B5
:103150009A070FD503F001038B42027A436804D02B
:10316000012101FA02F29A6170474FF4803101FAAD
:1031700002F29A61704700BF0269FF2A30B4034629
:1031800021D86AB3FF2A3ED040691C7EB0F5007F8B
:10319000A8BF4FF400706FF0FF05A842B8BF2846E3
:1031A00058619CB902447F2A5A6129DC9A7A9007B7
:1031B00009D502F00102A2421A7A5B6818D00120F8
:1031C00000FA02F29A61084630BC7047A2F580729C
:1031D00010440028D8BF00245861D8BF1C76E5E70A
:1031E000827A9507EFD512F0010F4368027AE6D193
:1031F0004FF4803000FA02F29A61084630BC704702
:1032000001241C76D2E7827A9407DCD512F0010FF4
:103210004368027AD3D0EBE70321FFF7BDBD00BFBF
:1032200010B504464068054B236008B1FFF7F4FC75
:103230002046FFF79BFD204610BD00BFA81D0308D8
:1032400038B5104D2B6893F8A430DB07044608D539
:103250000D4B0E4819884A1CC1F300311A80FEF745
:10326000C1F872B6636A53B1636A013B636262B6C6
:10327000042128680022BDE83840FEF7DDBD62B6B3
:1032800038BD00BFC802002024030020AE02002089
:1032900010B504464068064B236008B1FFF7BCFC3C
:1032A0002046FFF763FD2046FFF7B6FC204610BD21
:1032B000A81D0308F0B583B00446FFF767FD194B5E
:1032C000194E002584E82800A560E56004F1180087
:1032D000FFF7A6FD154A0195176C154B15481C60A4
:1032E00047F010071764126C134B1449DFF850C0F5
:1032F00002F0100201920422019F1A603268806875
:10330000920BA1FB0261C0F818C18908052741F69C
:10331000FF762046276161619E62D9622262656202
:1033200003B0F0BDA81D0308D00100200038024002
:103330002003002000ED00E000100040CDCCCCCCFC
:103340000D340008054B064A01204FF48001D86077
:1033500051601A6802431A60704700BF00100040B5
:1033600000E100E0074A084B1268920B10B4B2FB70
:10337000F1F141F6FF7441619C62D9625DF8044B42
:1033800002627047D001002000100040F8B5446888
:1033900085684169AC42064602D112E0A54210D0D0
:1033A00054F8043B5A69521A002A5A61F6DA18692D
:1033B0001F6802445A6197B10020B847A54271695D
:1033C000EED1336A591A0029316207DA0E4A736A5C
:1033D0001268013301EB923131627362F8BD5A68B1
:1033E000002ADBD09F68D8683FB1C30707D402EB3F
:1033F00060000021B8477169D0E7C307CED54310FC
:10340000D018D358DF59F4E7D0010020034A044B09
:103410006FF0010111611868FFF7B8BF001000409C
:103420002003002038B5094D094B036004460246CD
:1034300007212868FEF760FD286822460821FEF76C
:103440005BFD2046FFF792FC204638BDC8020020F5
:10345000E01D030810B50446FFF7E4FF2046FFF720
:10346000DBFB204610BD00BF012916D041B1CB07C0
:1034700020D490F83830022202FA03F3194219D00E
:10348000837E9A0716D513F0010F027E43690CD193
:10349000012101FA02F29A617047837E9A0709D5E9
:1034A00013F0010F027E436905D14FF4803101FA18
:1034B00002F29A61704791409961704701B170477B
:1034C000837E9A070AD513F0010F027E43690CBF71
:1034D00001214FF4803101FA02F29A61038F6FF3F8
:1034E00049230387704700BF2DE9F0410446254674
:1034F0001E4617468846FFF749FC354B45F8043B06
:1035000098E8030085E8030097E8030004F10C0342
:1035100083E8030096E8030004F1140383E8030042
:10352000B3799F0703D570793179FFF73DFC00230C
:10353000E362228FA17E274E2748236363F349224B
:10354000228794F839206662002542F0040263F372
:10355000C30265634FF07E538D0784F83920A06263
:10356000236209D5227E6369C80754BF01214FF445
:10357000803101FA02F29A61A37A99070AD513F011
:10358000010F227A636814BF01214FF4803101FAE0
:1035900002F29A61A37C9A070AD513F0010F227CEC
:1035A000E36814BF01214FF4803101FA02F29A61FD
:1035B000238F6FF30823238720460721FFF7ECFBB7
:1035C00020460821FFF7E8FB2046BDE8F08100BF58
:1035D000E01D0308000048420000C07FD0ED0D7AD6
:1035E00010B580ED080A20EE270A044622F012F9F1
:1035F0002063E06210BD00BFD0ED087A10B580ED09
:103600000D0A20EE270A044622F004F92063E06246
:1036100010BD00BF80ED0D0A0163C162704700BF9D
:10362000036B80ED0D0A194401637047D0ED087AF1
:1036300010B520EE270A044622F0ECF8236BC01ADE
:1036400010BD00BF38B5837E9A0704460D460FD5DE
:103650004269017E1069C84003F0010300F00100D7
:10366000984205D0002B47D0012303FA01F1916164
:1036700094F8393003F00103AB4215D0238FA27CBC
:1036800065F30823900723870BD502F00102AA42B5
:10369000227CE36814BF01214FF4803101FA02F269
:1036A0009A6101201FF0C8FAA37A99070AD513F08E
:1036B000010F227A63680CBF01214FF4803101FAB7
:1036C00002F29A6103201FF0B7FAA37A9A070AD58B
:1036D00013F0010F227A636814BF01214FF4803187
:1036E00001FA02F29A61E26A002D0CBF01234FF049
:1036F000FF331344E36238BD4FF4803303FA01F122
:103700009161B5E7F0B4094B094A0A4F01214FF422
:1037100000064FF400550024D960F96056605560EA
:10372000C4631A680A431A60F0BC70470014004072
:1037300000E100E0002000400E4B0F4A1B6880EDC6
:10374000040A5B08A2FB0313DB0807EE103AF8EE4D
:10375000C77A10B587EE800A044621F0E9FF074BCF
:103760000E21BCEEC00A84ED050A996283ED0B0AB6
:1037700010BD00BFD0010020898888880014004057
:10378000DFED0A7AC0EE277A08B5094B1B685B08A3
:1037900007EE103AB8EE470A20EE270A21F0C8FFDC
:1037A000044BBCEEC00A83ED0B0A08BD002474492B
:1037B000D0010020002000402DE9F04383B0002517
:1037C000294B2A4A00954563C56310601A6C8560D1
:1037D00042F020021A64D3F84080DFF8A8E0244ABF
:1037E000DFF8A4C0234F244E24499FED250A08F09A
:1037F0002008CDF800804FF00408DDF80090CEF8E6
:103800000080D2F808E00195CEF81CC1D3F840E062
:103810004EF4807EC3F840E01B6C03F48073019388
:103820000C23DDF804E03B609368C3F8F460936810
:1038300004469963FFF780FF2046B1EE040AFFF7C4
:103840009FFF94F84030656365F3440384F840308B
:1038500094F84030A56365F30003204684F84030B7
:1038600003B0BDE8F08300BF003802402803002009
:1038700000ED00E000200040E93800086D3C000841
:103880000050C347001400401D3C000870B490F87D
:103890004050C5F3430515B3002301244FF480368F
:1038A00002E00133AB421ADA426B04FA03F111422F
:1038B000F7D000F1180252F82320917A11F0020F8C
:1038C000EFD011F0010F117A526803F1010314BF18
:1038D00004FA01F106FA01F1AB429161E4DB002345
:1038E000436370BC704700BF034A044B6FF0010193
:1038F00011611868FFF7CABF0020004028030020AC
:103900002DE9F843856B002D53D090F84010C1F39A
:103910004301002947D000236C6D1E4601274FF458
:10392000803C03E00133DBB28B4236DAC3EBC302E7
:1039300004EBC202926A002AF4D000EB83022E6DDF
:10394000926903F01F0992F8128007FA09F919EA3F
:10395000060F0CBF4FF000094FF0010918F0020FDD
:1039600008F001060BD092F810804E4514BF07FAFC
:1039700008F60CFA08F6D2F80C80C8F81860168F12
:1039800069F308261687168F0133DBB246F40076FA
:103990008B4216874FF00106C8DB0023C3631EB1BC
:1039A0000120BDE8F883C163034B1B68986904F0EC
:1039B00045F80020BDE8F883C80200202DE9F04F4B
:1039C00090F84030914D0646D80785B040F1E1802F
:1039D0002968039191F8A400C0F34000002858D151
:1039E00096F84080C8F34308B8F1000F00F0078153
:1039F000D6F838B0D6F83CA0DBF8549002950746CC
:103A000022E0DDE90023012A73F100034DDBDCE94C
:103A10000245DDE90023121943EB05034FF0FF34A3
:103A20006FF0404594429D41CCE9022344DB06EB14
:103A300080039C6994F8393013F0020F18BF0127F6
:103A40000130C0B240457CDAC0EBC00C09EBCC0CB5
:103A5000DCF82830002BF3D0DCE90045DCE9042356
:103A6000DCF83010121943EB05035145CDE9002372
:103A7000CCE90023C5D1DBF844105145DBF84810F0
:103A800000F09E805145BCD1DCE90645CCE90445F7
:103A9000B7E796F8402000236FF3000286F8402035
:103AA000F363B36305B0BDE8F08F00220023CCE9D7
:103AB000002300224FF08043003243F14043CCE921
:103AC0000223DCF82C1006EB800301319C69CCF852
:103AD0002C10A37A9A070CD513F0010F227A636891
:103AE0000BBF01254FF4803105FA02F201FA02F210
:103AF0009A6194F83930E26A13F0010F0CBF012388
:103B00004FF0FF331344E36294F839200628C2F3E0
:103B1000400278D8736B00F01F01012505FA01F10E
:103B20000B4373632AB1DCF82C20DCF828309A426E
:103B300080D10021CCF82810238F6FF349232387ED
:103B400078E7029D736B0AF10102F26323B1304BF7
:103B50001A6842F001021A60002FA3D1039AF7639A
:103B6000906903F06BFF2B6806F13801986903F048
:103B70001BFF002839D196F84030B76367F3000384
:103B800086F84030234B4FF080525A6005B0BDE8B4
:103B9000F08F2B6806F13801986903F005FF0028C3
:103BA00080D03046FFF7ACFE96F8403060F300035B
:103BB00086F8403096F84030D9073FF509AF71E7F5
:103BC000DBF84C4000220023A142CCE90423BFF4DF
:103BD00059AF5145CCF830103FF456AFDCE90845F9
:103BE000CDE90045CCE900450BE73046FFF788FEFC
:103BF00096F8403060F3000386F84030C2E747464D
:103C0000D6F83CA09EE7044820F0D7FEC80200206A
:103C10000020004000ED00E0101E0308034A044BA2
:103C20006FF0010111611868FFF7C8BE0014004071
:103C30002803002010B490F84020C2F34304631C12
:103C400003F00F0300EB840463F3440280F8402088
:103C5000581EA1615DF8044B704700BF826808B52B
:103C600012B1C368984708BD20F0AAFE08B5034BFF
:103C7000186883680BB1FFF7F1FF08BD2803002027
:103C8000014B0360704700BF501E03080EB40020B4
:103C900003B07047014B0360704700BF501E03081C
:103CA00010B5034B03600446FEF7B6FF204610BD77
:103CB000501E030810B5034B03600446FEF7ACFF2B
:103CC000204610BD501E0308084624F0B2BE00BFB7
:103CD0000EB42DE9F04392B019AB02AE53F8049B39
:103CE000019305464A463046402127F093FA471C87
:103CF0003F2F04460ADC2B6831465B69284698470B
:103D0000204612B0BDE8F04303B0704738461FF0BC
:103D1000DBFF39464A46019B804627F07BFA2B6839
:103D200041465B6928469847B045E9D0B8F1000F95
:103D3000E6D040461FF0F4FFE2E700BF0348044B23
:103D40000449054A03601FF0E6BF00BF2C030020B2
:103D5000281E0308953C00088801002070B40568FF
:103D60002878F8B10024104E2146084480FB062331
:103D7000C118C317C3EBE111C1EB0121411A0C4477
:103D800084FB0623E218E317C3EBE213C3EB032320
:103D900015F8010FE31A89B29CB20028E5D141EA77
:103DA000042080B270BC70478180808070B402783B
:103DB0000AB30024114E21468D1885FB0623E9180D
:103DC000EB17C3EBE111C1EB0121691A0C4484FB31
:103DD0000623E218E317C3EBE213C3EB032310F847
:103DE000012FE31A89B29CB2002AE5D141EA0424EA
:103DF000A0B270BC70471046FBE700BF8180808096
:103E00002DE9F04F0B6887B053F80C3C0190002768
:103E10008846078047808780002B63D04E4CBA4687
:103E2000012340464D49524620F0E2F94C4B0493A1
:103E3000431C05465DD0D8F8003053F80C2C924551
:103E4000CAEB050379D805AE52463046414620F00C
:103E5000E3FC04A8314620F074F9059BDFF80891D3
:103E6000A3F10C0048455DD1DDF810C09CF800308E
:103E700043B34FF0000B5946604601EB030A8AFB3F
:103E800004230AEB03014FEAEA73C3EBE111C1EB30
:103E90000121C1EB0A018B448BFB04230BEB0302D2
:103EA0004FEAEB73C3EBE212C2EB022210F8013FC0
:103EB000C2EB0B0289B21FFA82FB002BDDD141EA73
:103EC0000B218BB2019AD3536A1CACF10C001CD0AD
:103ED000484505F1010A33D1D8F8003053F80C3CBD
:103EE0009A4502D307B0BDE8F08F0237062FF9D00C
:103EF00096E7D8F8003053F80C3C53451DD305AE77
:103F00005246304641462B46A1E74845EAD05CF888
:103F1000043C5A1E002B4CF8042CE3DC314620F004
:103F200025FADFE753F8042C511E002A43F8041C3D
:103F30009ADC03A920F01AFA96E70A4820F03DFD22
:103F40005CF8043C5A1E002B4CF8042CC4DC3146AF
:103F500020F00CFAC0E700BF81808080701E03084B
:103F6000A40500208819030898050020202804D003
:103F7000B0F109035842584170470120704700BF13
:103F8000F0B50F4E06600C6854F80C7C2744BC4218
:103F900083B0054601D10FE02E6814F8010B26F01E
:103FA00011F8C0B256F80C1C0090002228460123DC
:103FB00020F05AFAA742EFD1284603B0F0BD00BF67
:103FC000A405002070B584B00C4602AA1C49064620
:103FD00003A820F065FC03990022204651F80C3C10
:103FE00020F03BF9421C18BF00250FD001460122EA
:103FF000144B0095204620F075FC0399204651F89B
:104000000C3C002220F029F9431CEFD10E4B039AFF
:1040100021683160A2F10C00A3F10C0188422360F9
:1040200002D1304604B070BD52F8043C591E002B3A
:1040300042F8041CF5DC02A920F098F9F1E700BF72
:10404000741E030844210308A405002070B50C4623
:10405000012384B0054621492046002220F0C8F8FB
:10406000431C06461ED00022334602A8214620F0FB
:10407000D3FB236853F80C3C721C9A4220D821468B
:1040800003A820F0C9FB204603A920F05AF8039B9F
:10409000134AA3F10C00904215D1029B2B602846D5
:1040A00004B070BD214603A820F06DFB20460D49E9
:1040B000002220F007FA039B2B60284604B070BD55
:1040C000094820F07AFC53F8042C511E002A43F8CA
:1040D000041CE2DC01A920F049F9DEE7B01F030867
:1040E00098050020442103088819030830B50D46BF
:1040F000012383B0044611492846002220F078F8B5
:10410000431C0FD02B6853F80C1C421C4B1C8A42DA
:10411000C0EB03030ED82946204620F07DFB204645
:1041200003B030BD2046064901AA20F0B9FB204665
:1041300003B030BD034820F040FC00BFB01F0308AF
:10414000442103088819030800207047BFF34F8FEC
:10415000054A064BD16801F4E0610B43D360BFF31D
:104160004F8F00BFFDE700BF00ED00E00400FA053F
:10417000F0B5A14D2B6885B00C46074603F1300120
:1041800002A820F000FB236853F80C2C002A00F052
:104190009A8053F8042C002A03DB204620F04CF9C7
:1041A00023681A782F2A00F0CB80944D0022032335
:1041B000214603A820F030FB03A8914920F066F8BF
:1041C000039BA3F10C02AA42064640F0C780002ED2
:1041D00037D1236853F80C3C022B40F2CC804FF0CF
:1041E000FF332146032203A820F016FB204603A933
:1041F0001FF0A7FF039BA3F10C00A84240F0BE8074
:1042000080494FF0FF32012302A820F00BF802A9E9
:104210000346002203A820F0FFFA02A803A91FF01A
:1042200090FF039BA3F10C00A842BFD053F8042CCD
:10423000511E002A43F8041CB8DC01A920F096F8AE
:10424000B4E700220223214603A820F0E5FA03A8E0
:104250006D4920F01BF8039BA3F10C02AA4206460D
:1042600040F0BA80002E35D0029B53F8042C53F84E
:104270000C1C002A01F1FF3603DB02A820F0DCF859
:10428000029B9B5D2F2B02A960D003A820F07BFA34
:104290002F22012103A820F03DFA03A8214620F097
:1042A000D6F95A4A03683B600260039BA3F10C00F5
:1042B000A84240F08580029BA3F10C00A84269D17E
:1042C000384605B0F0BD29684C4D3031384620F0F5
:1042D0005AFAF0E7236853F80C3C012B4BD94FF006
:1042E000FF332146022203A820F096FA204603A9B4
:1042F0001FF027FF039BA3F10C00A84255D14149B1
:104300004FF0FF32012302A81FF08CFF02A90346E1
:10431000002203A820F080FA02A803A91FF011FFD1
:10432000039BA3F10C00A8429ED053F8042C511E0D
:10433000002A43F8041C97DC01A920F017F893E742
:10434000324A3B60A2F10C052260B4E7384620F007
:104350001AFA3846214620F07AF9ACE753F8041CE3
:10436000481E002943F8040C3FF731AF104601A95D
:104370001FF0FCFF2BE7264820F01FFB53F8042C0E
:10438000511E002A43F8041C3FF73AAF01A91FF061
:10439000EDFF35E753F8042C511E002A43F8041CA6
:1043A0008EDC03A91FF0E2FF8AE753F8042C511EAC
:1043B000002A43F8041CA2DC01A91FF0D7FF9EE7E6
:1043C00053F8042C511E002A43F8041C3FF773AF26
:1043D00001A91FF0CBFF6EE753F8041C481E00290B
:1043E00043F8040C3FF73EAF104601A91FF0BEFF93
:1043F000002E7FF439AF6DE7C80200209805002039
:10440000941E0308A01B0308981E0308A40500209F
:10441000881903082DE9F04191E81001444582B064
:104420000746164621D012B30834002301E09E420D
:1044300017D914F8082CFA5454F8040C5D1C20F019
:1044400027FC731B07EB050ECDE90001094A19464D
:10445000704624F0F7F9A04500EB050304F10804C9
:10446000E5D1184602B0BDE8F0810020FAE7104619
:10447000F8E700BF9C1E030830B585B00D46044622
:1044800003AA174920F00CFA052D23680CDC3435FB
:10449000EDB253F80C1C00952046002201231FF0BA
:1044A000E3FF204605B030BD53F80C1C39230093C0
:1044B0002046012300221FF0D7FF20460949012290
:1044C00020F0EEF82B350368EDB253F80C1C009584
:1044D000002201231FF0C8FF204605B030BD00BFF9
:1044E000A41E0308701E030870B505461DF0F0FBFE
:1044F000074E044602E03068FDF79EFC1DF0E8FB25
:10450000001BA8424FF003014FF00002F3D370BD2F
:10451000C80200204FF47A7303FB00F0FFF7E4BFFA
:10452000F8B542680368D31A9B1004460F4605D0BD
:104530005A00934220D96FF0030600E0042630466B
:104540001FF0C4FB054694E809001B1A9B109A0053
:104550003968AF1818BF396043B9043708B1FEF79E
:104560005BFB2E44A66084E8A000F8BD0146284607
:1045700023F083FE2068F0E7B2F1804FDBD2DE004B
:10458000DDE700BFF8B542680368D31A9B10044604
:104590000F4605D05A00934221D96FF0030600E080
:1045A000042630461FF092FB054694E809001B1ACA
:1045B0009B109A003968AF1818BF45F8231043B90B
:1045C000043708B1FEF728FB2E44A66084E8A0005B
:1045D000F8BD0146284623F050FE2068F0E7B2F10E
:1045E000804FDAD2DE00DCE72DE9F047426803684D
:1045F000C3EB02095FEAA90982B007460E4648D01C
:104600004FEA4903994555D96FF0030948461FF011
:104610005DFB97E83000291B891000EB8103804681
:1046200000F1040A23B13368254A40F82130326092
:10463000AC4231D0231DC3EB050C4FEA9C0C04F1B6
:1046400008061F4806EB8C06424622B153F8041CAC
:10465000116043F8040C0433B34202F10402F4D1B4
:1046600008EB8C0C174E0CF1080A54F8043BA3F12C
:104670000C02B24212D1A542F7D1386808B1FEF758
:10468000CBFA08EB0903BB6087E8000502B0BDE880
:10469000F0874FF00409B9E72046EFE753F8041C10
:1046A000481E002943F8040CE5DC104601A91FF060
:1046B0005DFEE0E7B3F1804FA6D24FEAC909A5E756
:1046C000A4050020980500202DE9F04FDFF80C81AB
:1046D000002385B082460F46164603604360836020
:1046E000A8F10C093B78B3424FD0002B4DD07B1C76
:1046F00000E024B11D4613F8014BB442F9D1AF429A
:1047000054D0002F3CD0C7EB050B5846002101AA1E
:104710001FF0DCFDBBF1010F044600F10C0328D1B2
:104720003A7822734C452C4F44D1DAF80420DAF859
:10473000081003938A4233D01AB11360274BCDF887
:104740000C800432CAF80420A3F10C00B84238D11E
:104750002B786F1C002BC5D1504605B0BDE8F08FFB
:104760002846294601AA1FF0B1FDAB46044600F1D8
:104770000C03184639465A4623F076FD0346D1E726
:10478000002DEDD0164820F012F9DAF80420DAF8FE
:104790000810124B03938A423D46A3F10C07CBD17C
:1047A000504603A9FFF720FF039BCDE70B4BA3F176
:1047B0000C07BAE70022C4F800B0A26003F80B208F
:1047C000B3E753F8042C511E002A43F8041CBFDC45
:1047D00002A91FF0CBFDBBE798050020A40500202F
:1047E000A81E0308F0B585B004462C2201A8FFF7E7
:1047F0006BFF019D029E0023B54223606360A360AE
:104800002BD055F8040B002124F0BAFF6368A2688E
:104810008DED000A93421BD01A1D0BB183ED000AE7
:104820006260AE42EDD10198029E86420AD0114FDD
:10483000054655F8043BA3F10C00B8420FD1AE4237
:10484000F7D1019808B1FEF7E7F9204605B0F0BDB1
:1048500020466946FFF764FEE3E72846F2E753F88F
:10486000042C511E002A43F8041CE8DC69461FF0A2
:104870007DFDE4E798050020F0B585B004461746B5
:1048800001A82C22FFF720FF019D029E0023B542C4
:1048900023606360A3602AD0002155F8040B3A46D8
:1048A00025F00AF86368A16800908B421AD0191DA0
:1048B00003B118606160AE42EED10198029E86425B
:1048C0000AD0114F054655F8043BA3F10C00B8423D
:1048D0000FD1AE42F7D1019808B1FEF79DF92046FD
:1048E00005B0F0BD20466946FFF74CFEE3E72846D9
:1048F000F2E753F8042C511E002A43F8041CE8DCAC
:1049000069461FF033FDE4E79805002002299ABFAD
:1049100000EB810191ED000A9FED010A704700BF95
:104920000000C07F90ED015AD1ED007AD1ED025A1E
:1049300090ED027A91ED016AD0ED006A27EEC51A7A
:1049400026EE470A66EEE50AA5EE250A88B0A6EE31
:10495000261AE7EE270A08B0704700BF90ED010A5B
:10496000D1ED015A90ED006AD1ED006A90ED027A26
:10497000D1ED027A20EE250AA6EE260AA7EE270A36
:10498000704700BF90ED010A90ED007AD0ED027AF9
:1049900020EE000AA7EE070AA7EEA70A704700BF9D
:1049A000D0ED010AD1ED016A90ED021A91ED027A83
:1049B00090ED000AD1ED007A70EEE60A31EE471A6A
:1049C00030EE670A88B008B0704700BFD0ED010A2A
:1049D00090ED021AD0ED007A60EE200A20EE011A66
:1049E00027EE800A88B008B0704700BF01481EF06B
:1049F0006BB800BF3003002008B50321FEF7CCF9E7
:104A00000248BDE808401EF05FB800BF3003002038
:104A100008B5074B1B6893F8A430DB0703D505489E
:104A20000021FCF7DFFC04481EF056F800BE08BD6C
:104A3000C8020020AC0200203003002010B5034B58
:104A400003600446FEF792F9204610BDE01E0308FD
:104A500010B5054B03600446FEF788F92046FEF7C3
:104A6000DBF8204610BD00BFE01E030870B5054608
:104A700082B0214C1646FEF789F9204B20492B6065
:104A80004FF4C0727F2384E80E00E360EEB91D4B43
:104A900001961A6C42F400621A641B6C03F4006302
:104AA000019320464FF40073019A23611DF0F8FF33
:104AB00020461EF009F8144A144B926814491164F8
:104AC000284601221A6002B070BD00220D4B0192EF
:104AD000196C226141F400621A641B6C03F40063D8
:104AE00001932046019B1DF0DBFF20461DF0ECFFEB
:104AF000284602B070BD00BF30030020E01E03084E
:104B0000002C00400038024000ED00E000E100E031
:104B1000114A00080D4B10B41C680246E00610D480
:104B2000947C507CA04207D05474DA6A013C22F491
:104B3000700242EA0454DC62044B9A6842F08042FC
:104B40009A6008465DF8044B704700BF00200140A2
:104B50002DE9F04F0446002583B0A5746574E57413
:104B6000FF2100F8015B102223F0A2FB1A4A0195F5
:104B7000D2F8449019491A4BDFF87480DFF874C0FA
:104B8000184F194E194849F48079C2F84490526C74
:104B900002F480720192019A4A686FF0784A42F4F6
:104BA000403B6FF0404940F20142C1F804B0C3F805
:104BB0000CA0C3F81090C3F804809A60DCF80820B9
:104BC0004FF48023C2F8880020463B60A561346022
:104BD00003B0BDE8F08F00BF003802400023014061
:104BE0000020014000E100E044030020514C000897
:104BF0002001000400ED00E038B5144BD96C1A68B0
:104C00009206044615D48369C07C23B162690125EC
:104C10008540154215D10130637CC0B28342E074F7
:104C200006D80A4B1968002221F010011960E274BD
:104C300038BD1968002221F032011960C27400BE2B
:104C400038BD89B29847E07CE5E700BF002001400D
:104C5000014B1868FFF7D0BF4403002010B504468D
:104C6000084605491DF0BEFF431C1DBFC0F3C3230A
:104C7000E4186078FF2010BDCC6F0308F8B50C462F
:104C800006460846214915461DF0ACFF07460DB9FA
:104C9000FF20F8BDB37C0F2BFAD8431CF8D0C4F327
:104CA00003101CF0D9FA04F00F0402686400032317
:104CB000A34013430360B07CC7F3C327F219411C20
:104CC0000528B174507007D8114A00EB8003516B6E
:104CD0009F400F435763F8BD0B2809D80C4A811F2A
:104CE000136B01EB810107FA01F119431163F8BD60
:104CF0000F28CED8064AA0F10C01D36A01EB81013E
:104D000007FA01F11943D162F8BD00BFCC6F030867
:104D10000020014038B5044608460C4915461DF0F0
:104D200061FF431C0DD0C0F3C320204443780F2BF8
:104D300007DC0121626901FA03F31DB922EA0302CB
:104D4000626138BD1A43626138BD00BFCC6F030891
:104D500081617047F8B542680368D31A9B10044616
:104D60000F4605D05A00934226D96FF0030600E0A3
:104D7000042630461EF0AAFF054694E809001B1AD7
:104D80009B109A003968AF1807D045F8231094E8B3
:104D900009001B1A9B109A00AF1823B10146284640
:104DA00023F06BFA2068043708B1FDF735FF2E4475
:104DB000A66084E8A000F8BDB2F1804FD5D2DE0035
:104DC000D7E700BFF0B5044685B009B106780EB14B
:104DD00005B0F0BD234B1B6818205D6A1EF076FFFE
:104DE0000746FCF719FB204B204A1B6801979B0BD9
:104DF000A2FB03139B0900EE103AB8EEC00A20F0A4
:104E000097FC1B4B0293039604AB13E90300BDEE22
:104E1000C00A07F108037C6087ED040A83E80300F9
:104E200087ED050A72B62B69B3F57A7F0ED3AB68AE
:104E3000EA68934211D0019A0BB11A60AB6804334F
:104E4000AB6062B60123237005B0F0BD4FF47A71F8
:104E500029612846FEF786FAE9E7281D01A9FFF730
:104E600079FFEEE7C8020020D0010020D34D621088
:104E7000154B00084FF0FF30704700BF704700BF70
:104E8000014B0360704700BF181F030810B5034BA8
:104E900003600446FDF7C0FE204610BD181F03083E
:104EA0008088431A58425841704700BF10B5836844
:104EB0000C4A0D4901600446A3F10C00904282B0F7
:104EC00004D10A4B2360204602B010BD53F8042CD5
:104ED000511E002A43F8041CF3DC01A91FF046FA16
:104EE000EFE700BF98050020401F030820190308C2
:104EF00010B583680D4A0E4901600446A3F10C0009
:104F0000904282B007D10B4B23602046FDF784FE10
:104F1000204602B010BD53F8042C511E002A43F85D
:104F2000041CF0DC01A91FF021FAECE79805002031
:104F3000401F03082019030870B584B000F1080170
:104F4000044602A81FF01FFC02A903A81FF01BFCC7
:104F500003A8FFF7F9F8039B134DA3F10C02AA4233
:104F600006460AD10EB101232373029BA3F10C0064
:104F7000A8420ED1207B04B070BD53F8041C481E1B
:104F8000002943F8040CEDDC104601A91FF0EEF9EE
:104F9000E8E753F8042C511E002A43F8041CE9DC0E
:104FA00003A91FF0E3F9E5E79805002038B50446AA
:104FB000084B0948A360206010460D46FEF7F6FE38
:104FC0002946A08004F108001FF0E9FB00232373A9
:104FD000204638BDA4050020401F0308F0B5A3B04B
:104FE00007460E46144601A81A4683211D4622F0A4
:104FF00023FC30B323F01DFD22AB184410F8853C90
:105000000A2B07D08CB9284622F09AFB0A2801D037
:105010000130F8D101A823F00CFD01A90246304669
:105020001FF050FA012023B0F0BD01A8232123F086
:10503000CEFC0028E7D12146BA68034823F0EAF9FC
:10504000E1E723B0F0BD00BF601F030830B50B7B64
:1050500083B00D46044673B90846FFF76DFF50B99B
:10506000094823F08BFA2046084901AA1FF018FCD2
:10507000204603B030BD05F1080120461FF083FB38
:10508000204603B030BD00BF801F03084421030841
:105090002DE9F043037B8BB0054688469146002BF3
:1050A00076D008A84146FEF7ABFE07A82946FFF7D1
:1050B000CDFF07987D497E4E22F0CCFC079B04462D
:1050C000A3F10C00B04240F0E480A3899A062BD4EF
:1050D000784F05A92046049722F044FB04A92846EE
:1050E00000222346FFF77AFF06A9002859D0204660
:1050F00022F038FB2B6807A8D3F81CC004AA08AB21
:105100002946E0470798034653F80C2DB34240F078
:105110009880002A55D1049BA3F10C00B04240F0C6
:10512000A080A3899B06D4D5204622F0F1F907A8D8
:105130002946FFF78BFF07985F4922F08BFC079BFE
:105140000446A3F10C00B04240F0978021460A20AB
:1051500022F0AEFC2146D8F8000022F007FD2346DD
:1051600009220121554822F0B7FF2146D9F8000055
:1051700022F0FCFC234601211122514822F0ACFF11
:10518000204622F0C5F9012420460BB0BDE8F0838B
:10519000FFF7D2FE0446002883D120460BB0BDE8BD
:1051A000F083049BA3F10C00B042BDD053F8042C53
:1051B000511E002A43F8041CB6DC07A91FF0D6F8DC
:1051C000B2E7D8F80020D9F8003052F80C0C059955
:1051D00053F80C2C069B02445B1A0332043B9342A7
:1051E000204612D222F094F90024049BA3F10C0073
:1051F000B042C9D053F8042C511E002A43F8041CB5
:10520000C2DC07A91FF0B2F8BEE7002222F0CEFDF3
:105210002146D8F8000022F0A9FC2146202022F0E7
:1052200047FC2146D9F8000022F0A0FC23460121CA
:105230000222244822F050FF204622F069F901247E
:10524000D3E750F8041C01F1FF3E002940F804ECBC
:105250003FF75FAF184603A901921FF087F8019A44
:1052600057E753F8042C511E002A43F8041C3FF75B
:1052700058AF07A91FF07AF853E753F8042C511ED2
:10528000002A43F8041C3FF761AF06A91FF06EF82F
:105290005CE753F8042C511E002A43F8041C3FF726
:1052A00014AF06A91FF062F80FE700BFA01F0308A4
:1052B00098050020A4050020D4170308A81F0308A0
:1052C000B41F0308A41F03082DE9F0470C4684B05F
:1052D0009146434903AA05461FF0E2FA237B002BBF
:1052E00048D003A82146FFF7B1FE03983D493E4E42
:1052F00022F0B0FB039B8046A3F10C00B04263D1C7
:10530000B8F80C309A062ED4DFF8E0A019E0276830
:1053100003A8FF69B847284603A91EF012FF0399A6
:10532000A1F10C00B0422ED12B6853F80C3CABB964
:10533000029BA3F10C00B04230D1B8F80C309B06B0
:1053400011D402A9002243462046CDF808A0FFF759
:1053500045FE02AA4B4621460028D8D1029BA3F164
:105360000C00B04225D1404622F0D2F8284604B0C5
:10537000BDE8F0872046FFF7DFFD0028B1D12846C1
:1053800004B0BDE8F08751F8043C5A1E002B41F8E8
:10539000042CC9DC01A91EF0E9FFC5E753F8042C71
:1053A000511E002A43F8041CC7DC03A91EF0DEFFCF
:1053B000C3E753F8042C511E002A43F8041CD2DC26
:1053C00003A91EF0D3FFCEE753F8042C511E002A88
:1053D00043F8041C94DC02A91EF0C8FF90E700BF4C
:1053E00044210308605E030898050020A4050020FE
:1053F000F8B50446084615460E4623F01AFB0A4B3C
:1054000023602B6853F80C1C0746394420461FF0D4
:10541000FEF831463A4620461FF042F9204629461A
:105420001FF015F92046F8BDA40500202DE9F04F26
:1054300089B093460546894607A8114605AA1FF07C
:105440002FFA07A8FEF780FE079BDFF8F882A3F18A
:105450000C024245044640F0378114B909B0BDE85A
:10546000F08F5846B149DFF8E0A222F0F3FA0126A6
:10547000074605E0049BA3F10C00404540F0318154
:10548000BB899B0600F1038108AC324644F810AD9D
:10549000284621463B460136FFF7A0FD002800F0D4
:1054A000E7802B6821469B6928464A469847002892
:1054B000E0D082894AF6E6139A42DBD107AA016856
:1054C00005A81FF0EDF94846FBF708FC05A907A859
:1054D0001FF059F907A8FEF737FE079BA3F10C024E
:1054E0004245044640F01581002C40F08480059B25
:1054F00053F8042C002A03DB05A81EF09DFF059B32
:105500001B782F2B0ED007A8894905AAFFF770FF3B
:1055100005A807A91EF015FE079BA3F10C00404546
:1055200040F03C8106AC594607AA20461FF0B8F966
:105530002F214FF0FF3220461EF044FE2146034645
:10554000002207A81FF068F9204607A91EF0F9FD00
:10555000079BA3F10C00404540F0CF80214607A8EF
:105560001FF011F905A907A81FF071F807A8FEF7A9
:10557000EBFD079BA3F10C024245844640F02881D5
:10558000BCF1000F16D105AA07A86A49FFF730FF42
:1055900007A8FEF7D9FD079BA3F10C02424504467C
:1055A00040F0E38007A8002C7CD0624905AAFFF7F1
:1055B0001FFF07E0214607A81FF0E5F807A805A987
:1055C0001FF045F805A807A91EF0BBFD079BA3F136
:1055D0000C00404540F0D680069BA3F10C004045EE
:1055E00009D053F8042C511E002A43F8041C02DC95
:1055F00007A91EF0BBFE05A907A81FF0C4F807A85D
:10560000FEF7A2FD079BA3F10C024245044640F0C1
:10561000D280002C41D00599474822F0FBFE07A913
:10562000384622F09FF8414905983A4622F0AEFBF1
:1056300028464946059AFFF7F9FE3C4958463A463E
:1056400022F0A4FB384607A922F056FC059BA3F1E3
:105650000C0040453FF40EAF53F8042C511E002AB5
:1056600043F8041C3FF706AF07A91EF07FFE01E7D1
:10567000049BA3F10C00404509D053F8042C511EA3
:10568000002A43F8041C02DC07A91EF06FFE38460E
:1056900021F03EFF09B0BDE8F08F0599274822F0C0
:1056A000B9FED3E705AA2649FFF7A2FE07A8FEF731
:1056B0004BFD079BA3F10C024245044646D1002C4A
:1056C0008AD007A81E4971E753F8041C481E002918
:1056D00043F8040C3FF7C1AE104606A91EF046FE83
:1056E000BBE653F8042C511E002A43F8041C3FF774
:1056F000C7AE07A91EF03AFEC2E653F8042C511EAD
:10570000002A43F8041C3FF729AF03A91EF02EFE20
:1057100024E753F8041C481E002943F8040C3FF703
:10572000E3AE104606A91EF021FEDDE6605E03082A
:10573000A01B0308C81F0308D41F0308F01F030899
:10574000CC1F030898050020A405002053F8041C72
:10575000481E002943F8040CB1DC104603A91EF0D2
:1057600005FE002C3FF438AFABE753F8041C481E8D
:10577000002943F8040C3FF715AF104603A91EF0AB
:10578000F5FD0FE753F8042C511E002A43F8041CC2
:105790003FF722AF03A91EF0E9FD1DE753F8042CE3
:1057A000511E002A43F8041C06AC3FF7BCAE21464C
:1057B0001EF0DCFDB7E653F8041C481E002943F830
:1057C000040C3FF726AF104606A91EF0CFFD20E7D8
:1057D00053F8041C481E002943F8040C3FF7D0AED0
:1057E000104603A9CDF804C01EF0C0FDDDF804C0CA
:1057F000BCF1000F3FF4C7AEDCE600BF30B5037B61
:1058000083B004460D4683B101A82146FFF71EFC74
:105810002046019A2946FFF709FE019B0B4AA3F196
:105820000C00904207D103B030BDFFF785FB002884
:10583000EAD103B030BD53F8042C511E002A43F8BE
:10584000041CF0DC69461EF091FDECE79805002091
:105850008088431A58425841704700BF0020704763
:10586000014B0360704700BF2019030810B5034BBC
:1058700003600446FDF7D0F9204610BD2019030847
:105880002DE9F0410F46C5688168A94282B00646FD
:105890002AD2A942DFF86C8023D20B780A2B01F1BF
:1058A000010408BF012204D106E014F8013B0A2BD1
:1058B00001D0AC42F9D1621A6B4601A81FF005F87D
:1058C000336830469B6901A93A469847019BA3F18A
:1058D0000C0040450BD1F568AC4205D22146A942E7
:1058E000DBD30C460022E7E702B0BDE8F08153F8B5
:1058F000042C511E002A43F8041CECDC69461EF0FF
:1059000035FDE8E7980500202DE9F0470F4684B003
:105910003649924603AA80461EF0C2FFB968FE6867
:10592000B14248D2B142DFF8C89032D20B780A2B8C
:1059300001F1010408BF012204D106E014F8015B63
:105940000A2D01D0B442F9D1621A03AB02A81EF0AD
:10595000BCFF3B6803A8DD693946534602AAA84745
:10596000404603A91EF0EDFB039BA3F10C00484544
:1059700025D1D8F8003053F80C3C6BB9029BA3F149
:105980000C00484526D1FE68B44214D22146B142EB
:10599000CCD30C460022D8E7029BA3F10C0048456B
:1059A00009D053F8042C511E002A43F8041C02DCD1
:1059B00003A91EF0DBFC404604B0BDE8F08753F8B5
:1059C000042C511E002A43F8041CD2DC01A91EF04D
:1059D000CDFCCEE753F8042C511E002A43F8041CDA
:1059E000D1DC03A91EF0C2FCCDE700BF44210308AF
:1059F0009805002010B5064B036004460846FEF7E4
:105A0000D5F9044A044BA080A260E360204610BD93
:105A10002820030850D102083117030810B50446A6
:105A20004068054B236008B121F072FD0022034B52
:105A300062602360204610BD50200308501E0308FA
:105A400010B504464068074B236008B121F060FDA3
:105A50000022054B626020462360FDF7DDF82046FA
:105A600010BD00BF50200308501E030870B54468E5
:105A70000D4654B1084622F0DCFF234602460121C0
:105A80002846BDE8704022F027BB204670BD00BF0D
:105A90000121FDF781B900BF10B583680C4A0D499B
:105AA00001600446A3F10C00904282B005D120466B
:105AB000FDF75CF9204602B010BD53F8042C511ECE
:105AC000002A43F8041CF2DC01A91EF04FFCEEE7AB
:105AD00098050020C824030810B583680E4A0F49B2
